:100A5D0057656C636F6D20746F206775616E676489
:050A6D006F6E6721001F
:10088200120A877B427D017F01120AB77BFF7A0A37
:10089200795D7D037F011209DE750C037BEA7A0024
:1008A2007D017F021209A6750C027B547A007D0538
:1008B2007F021208D3750C087BA57A007D097F029E
:1008C20012096D7F18120A9B7FE87E03120A72805A
:0108D200F233
:100A9B00C2A6C2A58F80D2A7120AC1C2A7020AC1E1
:100A0C00CFCDCFCECCCE12082D7C007D0A12082D76
:040A1C00ED2430FF96
:100A2000D2A6C2A58F80D2A7120AC1C2A7020AC14C
:100A87007F38120A9B7F0C120A9B7F06120A9B7FF4
:040A970001020A9BB3
:100A30008D10EF64017005E510148004E510243F6B
:070A40004480FF120A9B2213
:0A0AB7008B08120A30AF08020A2073
:0609DE008B088A09890A5A
:1009E400E4F50BF50C120A30AB08AA09A90A850C28
:1009F40082850B83120800FF600D120A20050CE5A6
:070A04000C70E5050B80E119
:010A0B0022C8
:0409A6008A0A8B0B23
:1009AA00E4F50DF50E120A30750D00850C0ED3E52F
:1009BA000E9400E50D9400401AE50E14FD7F0A120C
:1009CA000A47AC0AAD0B120A0CE50E150E70DF15BC
:0309DA000D80DBB2
:0109DD0022F7
:0408D3008A0A8B0BF7
:1008D700120A30C3E50A64809480400D7F2B120A08
:1008E70020850A0E850B0F80107F2D120A20C3E486
:1008F700950BF50FE4950AF50E850C0DD3E50D94D0
:1009070000748094804014E50D14FD7F0A120A4795
:0B091700AC0EAD0F120A0C150D80E1B4
:0109220022B2
:040923008A138B1494
:10092700120A30851516D3E516940074809480401A
:1009370034E51614FD7F10120A47AC13AD14CFCD62
:10094700CFCECCCE12082DEF540FF517C3940A74EF
:10095700809480E5175004243080022437FF120A60
:0509670020151680C1FF
:01096C002268
:04096D008A0A8B0B5C
:10097100120A30850C0DD3E50D94007480948040EB
:1009810023E50D14FD7F02120A47AC0AAD0BCFCD52
:10099100CFCECCCE12082DEF54012430FF120A2005
:0409A100150D80D2DE
:0109A500222F
:090AC100007F027EC7DEFEDFFCAF
:010ACA002209
:100A7200EF1FAC0670011E4C600A7D027CC7DCFED3
:040A8200DDFC80EC2B
:010A8600224D
:100A47007E01E4FCECC39D5008EE8FF0A4FE0C8001
:050A5700F3AF067E0074
:010A5C002277
:03000000020AAB46
:0C0AAB00787FE4F6D8FD75811702088200
:10080000BB010CE58229F582E5833AF583E02250AD
:1008100006E92582F8E622BBFE06E92582F8E222F7
:0D082000E58229F582E5833AF583E4932211
:10082D00BC000BBE0029EF8DF084FFADF022E4CCAF
:10083D00F875F008EF2FFFEE33FEEC33FCEE9DEC78
:10084D00984005FCEE9DFE0FD5F0E9E4CEFD22EDBE
:10085D00F8F5F0EE8420D21CFEADF075F008EF2F08
:10086D00FFED33FD4007985006D5F0F222C398FDF9
:05087D000FD5F0EA2296
:00000001FF
